:100000000C94E3000C940B010C940B010C940B0169
:100010000C940B010C940B010C940B010C940B0130
:100020000C940B010C940B010C940B010C940B0120
:100030000C940B010C940B010C940B010C940B0110
:100040000C94A3200C940B010C94C4160C948016F1
:100050000C940B010C940B010C940B010C940B01F0
:100060000C94AD030C940B016932635F616464729C
:100070006573732C6573636170652C657363232CE2
:100080006D6F64650A004572726F722077726974D1
:10009000696E6720746F2066696C650025642C2585
:1000A000642C25642C25640052656D6F7665206391
:1000B0006F6E666967206661696C656400636F6E68
:1000C0006669672E74787400636172642E696E6964
:1000D000740066696C652E6F70656E00726F6F7468
:1000E0002E696E697400766F6C756D652E696E6928
:1000F00074004572726F72200021546F6F206D6121
:100100006E79206C6F67733A3221004C4F4725306F
:1001100035642E5458540021546F6F206D616E79F0
:10012000206C6F67733A3121004572726F722063E1
:1001300072656174696E67205345514C4F470A00E0
:100140005345514C4F4730302E54585400636F6E16
:100150006669672E747874003C0029002841647237
:100160003A203078003200310000000000240027DF
:10017000002A0000000000230026002900040404D7
:100180000404040404020202020202030303030340
:10019000030102040810204080010204081020011D
:1001A00002040810200000000800020100000304FF
:1001B00007000000000000000000000000250028EB
:1001C000002B0000462411241FBECFEFD8E0DEBF75
:1001D000CDBF26E0ACE8B1E001C01D92AF34B2075C
:1001E000E1F711E0A0E0B1E0ECE0F5E502C0059038
:1001F0000D92AC38B107D9F710E0C3EED0E004C0DF
:100200002197FE010E945328C23ED107C9F70E94E0
:10021000ED200C94842A0C94000085ED8093BC00A2
:100220008091BC0084FDFCCF1092FC0108954091A8
:10023000D801262F30E0240F311D21323105DCF4A6
:100240002091FC012430C9F4FC0180E090E0861785
:1002500058F43091D8012191DC01A854BE4FA30F6E
:10026000B11D2C930196F3CF8091D801680F609354
:10027000D80180E0089581E0089582E00895E0913A
:100280002502F0912602309729F0109293011092E6
:10029000920109940895CF93DF93AC01E09123027A
:1002A000F09124023097F1F09091910180919001AA
:1002B0009817C0F090E0292F30E02617370754F444
:1002C000D901A856BE4FEA01C20FD31F28812C9333
:1002D0009F5FF1CF1092910160939001CB01DF916C
:1002E000CF910994DF91CF9108950895E091910104
:1002F00080919001E81730F4F0E0E856FE4F8081DD
:1003000090E008958FEF9FEF089590919101809173
:100310009001981750F4E92FF0E0E856FE4F208145
:1003200030E09F5F9093910102C02FEF3FEFC90132
:1003300008958091900190E020919101821B910994
:100340000895CF93DF93CB01EA01642F0E94170138
:10035000CE01DF91CF910895CF93DF931F92CDB758
:10036000DEB7698361E0CE0101960E94170181E04A
:1003700090E00F90DF91CF9108952091730230911A
:10038000740280917502909176022817390769F0FE
:100390008091750290917602E0917102F091720263
:1003A000E80FF91F808190E008958FEF9FEF089587
:1003B00080917502909176022091730230917402BF
:1003C00082179307D1F09C012F5F3F4F409171023C
:1003D00050917202FA01E80FF91F80814091770273
:1003E000509178022417350710F020E030E0309368
:1003F00076022093750290E008958FEF9FEF0895A5
:100400002FB7F89480917302909174024091750215
:1004100050917602841B950B2FBF97FF06C0209149
:10042000770230917802820F931F089520916B021A
:1004300030916C0280916D0290916E0228173907FD
:10044000A9F7089520916B0230916C02C9010196C1
:100450004091690250916A02FA01E20FF31F608332
:1004600020916F02309170028217930710F080E0A4
:1004700090E020916D0230916E022817390711F338
:1004800090936C0280936B028091C1008062809394
:10049000C10081E090E00895EDE3F2E09083818374
:1004A0007283638384E0809311010895FC0180814D
:1004B000E0E0F1E082878181826081830895AF92DC
:1004C000BF92CF92DF92EF92FF920F931F93CF9341
:1004D000DF936B015A018A010115110509F443C02C
:1004E000F89420916D0230916E027894C0916B0265
:1004F000D0916C02C217D30728F4C90101978C1B55
:100500009D0B09C080916F02909170028C1B9D0B16
:10051000232B09F4019778018017910708F47C01D7
:100520008091690290916A02A701B6018C0F9D1F0C
:100530000E94522ACE0DDF1D80916F0290917002B1
:10054000C817D90710F0C81BD90BD0936C02C09301
:100550006B028091C10080628093C1000E191F0957
:10056000CE0CDF1CB9CFC501DF91CF911F910F9148
:10057000FF90EF90DF90CF90BF90AF900895CF9312
:10058000DF93EC0181E090E090938F0180938E01E6
:1005900080917D02882321F08DE792E00E947A14F9
:1005A00040E0BE018DE792E00E94BF198823D9F098
:1005B0008091950290919602209197023091980235
:1005C00030933D0220933E0290933F02809340027D
:1005D00084E0809311018DE792E00E947A1480916B
:1005E0000101826008C06FEF7FEFCB010E944C02D7
:1005F000809101018D7F80930101DF91CF9108955A
:1006000042E050E0BC018DE792E00E9418138DE7B4
:1006100092E00E94DC12E0E0F1E08181826081835F
:1006200008950F931F93CF93DF93CDB7DEB7A497B1
:100630000FB6F894DEBF0FBECDBF8C01CE01019680
:100640000E94091A81E090E090938F0180938E01BF
:1006500020E0A80164EC74E0CE0105960E948314AA
:100660008823A9F0CE0105960E94A911182FCE016A
:1006700005960E947A14112351F080910101826045
:100680008093010161E070E080E090E008C080911B
:1006900001018D7F809301016FEF7FEFCB010E94FD
:1006A0004C02A4960FB6F894DEBF0FBECDBFDF910B
:1006B000CF911F910F910895CF93DF93EC0183E0C9
:1006C00090E090938F0180938E01209721F0CE01CE
:1006D0000E94DC2402C0C8E1D1E0D0938D01C09318
:1006E0008C0184EC94E00E949F1FCE010E94001BAD
:1006F00080910101826080930101DF91CF91089583
:1007000010928F0110928E01FC0120812E3291F403
:1007100021812E3279F483E891E00E94D219882356
:1007200089F0809101018260809301018091010133
:10073000806110C00E94D219882321F080910101AC
:10074000826003C0809101018D7F809301018091BF
:1007500001018F7E8093010108951F920F920FB6C1
:100760000F9211242F933F934F935F936F937F9337
:100770008F939F93AF93BF93EF93FF938091B900B3
:10078000887F803609F49CC068F5883209F45BC024
:1007900090F4803109F454C038F4882309F4F6C089
:1007A000883009F44DC0F6C0883109F44CC080325D
:1007B00009F45DC0EFC0803409F468C048F48033A8
:1007C00009F455C0883309F0E5C08093FB01D8C017
:1007D000803509F44FC0883509F45DC0883409F0CC
:1007E000D9C0D6C0883909F4C7C0A8F4883709F43D
:1007F00067C038F4883609F463C0803709F460C0F4
:10080000C9C0883809F4B8C0803909F45FC080389D
:1008100009F0C0C05BC0803B09F486C038F4803A60
:1008200009F466C0883A09F47FC0B4C0803C09F47A
:10083000A7C0883C09F4A4C0883B09F48AC0AAC0B8
:100840008091210210C09091200280911F02981780
:1008500070F5E091200281E08E0F80932002F0E09D
:10086000E150FE4F80818093BB0085EC86C0809371
:10087000FB018EC0E091200281E08E0F8093200268
:100880008091BB00F0E0E150FE4F80839091200208
:1008900080911F026EC0E091200281E08E0F809354
:1008A00020028091BB00F0E0E150FE4F80838091F8
:1008B000FE0181116DC081E08093FD0184EA61C079
:1008C00083E08093FC011092FA01CFCF8091FA016E
:1008D000803208F051C0E091FA0181E08E0F8093E0
:1008E000FA018091BB00F0E0E652FE4F8083BDCF5D
:1008F00085EC8093BC001092FC018091FA0180325B
:1009000030F4E091FA01F0E0E652FE4F108260917F
:10091000FA0170E0E0919601F09197018AED91E083
:1009200009951092FA0136C084E08093FC01109280
:10093000D9011092D801E0919401F09195010995A7
:100940008091D801811105C081E08093D801109277
:10095000B801E091D90181E08E0F8093D901F0E0D8
:10096000E854FE4F80818093BB009091D901809123
:10097000D801981708F479CF85E88093BC000AC0A5
:1009800085EC8093BC001092FC0104C01092FB0126
:100990000E940D01FF91EF91BF91AF919F918F91B7
:1009A0007F916F915F914F913F912F910F900FBE6B
:1009B0000F901F9018951092FC0181E08093FE012A
:1009C0001092FD0161E082E10E94F21F61E083E18B
:1009D0000E94F21FE9EBF0E080818E7F80838081AE
:1009E0008D7F808388E48093B80085E48093BC0089
:1009F000089588EC90E00E94C6180E94131A0C9487
:100A0000BE270C94B627CF93DF93EC0180917D0233
:100A1000882321F08DE792E00E947A1449E1BE011B
:100A20008DE792E00E94BF19C82F8823A1F0809122
:100A3000950290919602A0919702B0919802892B0D
:100A40008A2B8B2B41F48DE792E00E949F1F8DE74C
:100A500092E00E94DC128C2FDF91CF9108950097D5
:100A6000D9F010928F0110928E010E940305882305
:100A700049F0809101018260809301018091010120
:100A8000886008C0809101018D7F80930101809171
:100A90000101877F809301010895FF920F931F93B7
:100AA000CF93DF93CDB7DEB7C955D1090FB6F89410
:100AB000DEBF0FBECDBFCE0101960E94091A0E9473
:100AC000C81981110AC082EF90E00E94C6188CED0F
:100AD00090E00E94C6180E94131A6DEB70E0CE01E0
:100AE000805B9F4F0E94D52441E0BE01605B7F4F39
:100AF000CE0105960E94BF19882389F0CE01059684
:100B00000E944C0A81110BC088EA90E00E94C6182E
:100B10006EE771E08DEE94E00E94370A6FC049E104
:100B2000BE01605B7F4FCE0105960E94BF198DE02C
:100B300090E00E940105182F85E090E00E940105D9
:100B4000082F86E090E00E940105F82E82E090E0F8
:100B50000E9401051F928F931F92FF921F920F9385
:100B60001F921F938CE990E09F938F938E010D5BF2
:100B70001F4F1F930F930E940325F801019000203F
:100B8000E9F73197AF01401B510BB801CE01059633
:100B90000E941813F80101900020E9F73197E01B3B
:100BA000F10B0FB6F894DEBF0FBECDBF8E179F07B7
:100BB00051F086E890E00E94C6186EE771E08DEE75
:100BC00094E00E94370A6EE771E0CE0101960E9420
:100BD000370A8E010B5D1F4F68E670E0C8010E9466
:100BE000D524F80101900020E9F73197AF01401BAF
:100BF000510BB801CE0105960E941813CE0105963F
:100C00000E947A14C75ADF4F0FB6F894DEBF0FBEAA
:100C1000CDBFDF91CF911F910F91FF900895CF939A
:100C2000DF93EC01DB01FE018C916F5F7F4F882326
:100C300041F1988121969A3229F420E030E080E059
:100C400090E00CC0891771F39F3361F320C040819D
:100C50004A3241F054130FC0319611965C915111F4
:100C6000F6CF0FC09F012F5F3F4F8181882389F00E
:100C7000CD01019604C04F3379F3DC010196F901EF
:100C8000EDCF91919A32E9F381E0992319F080E058
:100C900001C081E0DF91CF910895BF92CF92DF92A2
:100CA000EF92FF920F931F93CF93DF93CDB7DEB7F1
:100CB000E1970FB6F894DEBF0FBECDBF009709F4E1
:100CC0009BC08C01CE0101960E94091A81E090E040
:100CD00090938F0180938E0120E0A80164EC74E072
:100CE000CE0105960E948314882311F18D818077AF
:100CF00009F46FC0CE0105960E94B010182FCE01E6
:100D000005960E947A1480910101112341F08260BE
:100D10008093010161E070E080E090E006C08D7F8B
:100D2000809301016FEF7FEFCB010E944C0264C002
:100D300084EC94E00E949F1FC12CD12C76018FE29D
:100D4000B82ECE0105960E94981A8823C1F18D8194
:100D500083FF30C0807619F0BDA21EA20CC060E0F7
:100D6000CE0105960E94BC12009721F1BE016B5D79
:100D70007F4F0E948E12BE016B5D7F4FC8010E94A3
:100D80000F068823B9F0CE0105960E947A1441E03F
:100D9000BE016B5D7F4FCE0105960E94BF19CE014B
:100DA00005960E944C0A882329F08FEFC81AD80AAA
:100DB000E80AF80ACE0105960E947A14C2CFC7014C
:100DC000B6010E944C028091010182608093010172
:100DD00013C0CE0105960E947A1441E0B801CE01FD
:100DE00005960E94BF19882329F0CE0105960E941E
:100DF0004C0A84CF10E083CFE1960FB6F894DEBFA3
:100E00000FBECDBFDF91CF911F910F91FF90EF905B
:100E1000DF90CF90BF900895CF93DF931F92CDB70F
:100E2000DEB780917D02882321F11092110180911B
:100E30001101803220F5BE016F5F7F4F8DE792E098
:100E40000E94E118019719F4898190E002C08FEFA8
:100E50009FEF8F3F2FEF920791F0E0911101F0E0AB
:100E6000E35CFD4F8083809111018F5F80931101BE
:100E7000DECF81E0809311018FEF80933D020F90D0
:100E8000DF91CF910895CF93DF93EC0180917D02A4
:100E9000882321F08DE792E00E947A1482E090E0AE
:100EA00090938F0180938E0140E0BE018DE792E028
:100EB0000E94BF19882399F080910A01882301F1CB
:100EC00040910A0150E060E070E08DE792E00E94FE
:100ED000A30F811115C08DE792E00E947A148091D2
:100EE00001018D7F8093010180910101877F8093B3
:100EF000010181E0809311018FEF80933D020CC0CE
:100F00000E940C0780910101826080930101809111
:100F10000101886080930101DF91CF910895809352
:100F20003D0281E08093110108950F931F93CF93A9
:100F3000DF93EB010E9497208B010E942A178F3FBD
:100F400049F00E949720601B710BC617D707A8F7BE
:100F500080E001C081E0DF91CF911F910F91089552
:100F6000CF93DF93FC012381222361F0EC01018008
:100F7000F281E02D61E082810E94F21F8FEF0E94DA
:100F800025171B82DF91CF910895FF920F931F9336
:100F9000CF93DF9300D000D0CDB7DEB78C01F62E13
:100FA00029833A834B835C83FC018381811103C0D5
:100FB000C8010E941117FF2029F06CE271E0C801FE
:100FC0000E9495078F2D80640E9425178C810E94B6
:100FD00025178B810E9425178A810E9425178981F8
:100FE0000E942517FF2011F087E801C085E90E94C3
:100FF00025170E942A178BE0F82E0E942A17F80165
:10100000848387FF03C0FA94F110F7CF0F900F90FD
:101010000F900F90DF91CF911F910F91FF90089546
:10102000EF92FF920F931F93CF93DF93EC0179011F
:101030008D81833039F089E0440F551F661F771F7B
:101040008A95D1F79A01AB0161E1CE010E94C507F3
:10105000882319F080E3888338C00E9497208B0191
:101060000E942A178C838F3F49F40E949720601BAF
:10107000710B693E7340A0F385E503C08E3F31F0EC
:1010800080E58883CE010E94B0071FC08FEF8EBD20
:10109000F701D701A150BE4F9FEF0DB407FEFDCF62
:1010A0008EB59EBD8193AE17BF07B9F70DB407FE8D
:1010B000FDCF8EB58C931C820E942A170E942A179E
:1010C000CE010E94B00781E004C0CE010E94B007AB
:1010D00080E0DF91CF911F910F91FF90EF900895E5
:1010E000EF92FF921F93CF93DF93FC01208120FFAB
:1010F00032C0EC017C01F7E0EF0EF11C4B815C810A
:101100006D817E81E981FA819701808191810E94C0
:101110003117182F811102C010E01EC0888181FD97
:1011200004C088818E7F888317C0E981FA814B8152
:101130005C816D817E8184859585A685B785480F04
:10114000591F6A1F7B1F9701808191810E9431176F
:101150008111E7CFE1CF11E0812FDF91CF911F9176
:10116000FF90EF900895CF92DF92EF92FF921F933E
:10117000CF93DF93EC016A017B01122F8B819C815D
:10118000AD81BE8184179507A607B707F1F0CE01A0
:101190000E947008811103C080E090E01CC012FF23
:1011A00006C01882CB82DC82ED82FE820EC0E9810D
:1011B000FA819E01295F3F4FB701A601808191818D
:1011C0000E9410088111EDCFE7CF13708881182B92
:1011D0001883CE010796DF91CF911F91FF90EF907A
:1011E000DF90CF9008958F929F92AF92BF92CF924F
:1011F000DF92EF92FF920F931F93423051056105EA
:10120000710510F480E055C0FC01C08CD18CE28CDB
:10121000F38CC416D506E606F706A0F3480159017B
:101220006A017B018581803239F584899589A68997
:10123000B78917E076956795579547951A95D1F731
:10124000480F591F6A1F7B1F23E0CF0180960E9421
:10125000B3080097B9F2E894C7F8DD24EE24FF2420
:10126000CC0CDD1CCC0CDD1CFC01EC0DFD1D8082CA
:101270009182A282B3821CC0803121F644895589B3
:10128000668977894D0D511D611D711D23E0CF01C8
:1012900080960E94B308009709F4B4CFDD24EE24B1
:1012A000FF24CC0CDD1CFC01EC0DFD1D9182808225
:1012B00081E01F910F91FF90EF90DF90CF90BF9052
:1012C000AF909F908F900895CF92DF92EF92FF9210
:1012D0000F931F93CF93DF93423051056105710542
:1012E00010F48FEF68C0FC01C08CD18CE28CF38CC1
:1012F000C416D506E606F706A0F389016A017B014C
:10130000EC018581803241F584899589A689B78968
:10131000E7E07695679557954795EA95D1F7480F99
:10132000591F6A1F7B1F22E0CE0180960E94B308DE
:101330000097B9F2E894C7F8DD24EE24FF24CC0C22
:10134000DD1CCC0CDD1CFC01EC0DFD1D80819181B0
:10135000A281B381BF701EC0803119F644895589BE
:10136000668977894D0D511D611D711D22E0CF01E8
:1013700080960E94B308009709F4B3CFDD24EE24D1
:10138000FF24CC0CDD1CFC01EC0DFD1D8081918146
:10139000A0E0B0E0488D598D6A8D7B8D48175907C4
:1013A0006A077B0738F0F80180839183A283B383B7
:1013B00081E001C080E0DF91CF911F910F91FF90FC
:1013C000EF90DF90CF9008959F92AF92BF92CF920F
:1013D000DF92EF92FF920F931F93CF93DF9300D092
:1013E00000D0CDB7DEB75C016A017B019E012F5FA3
:1013F0003F4FB701A601C5010E946409982E87FFDF
:1014000002C080E024C000E010E09801B701A6010E
:10141000C5010E94F3088823A1F3F5014085518599
:10142000628573854C155D056E057F0550F0F1E012
:10143000CF1AD108E108F108F501C086D186E2860D
:10144000F386C980DA80EB80FC809110CFCF0F90BB
:101450000F900F900F90DF91CF911F910F91FF9000
:10146000EF90DF90CF90BF90AF909F90089561155F
:10147000710579F0FB0101900020E9F73197AF0188
:10148000461B570BDC01ED91FC910280F381E02DAE
:10149000099480E090E008959F92AF92BF92CF921E
:1014A000DF92EF92FF920F931F93CF93DF93CDB70D
:1014B000DEB7A0970FB6F894DEBF0FBECDBF19827E
:1014C0001A82DC012C9123FF16C012962C9121FF69
:1014D00012C08C01FC01448D558D668D778D4115B0
:1014E00051056105710549F0F801868197810E94D7
:1014F000E409811102C080E08EC061E0C8010E9451
:10150000BC127C010097B9F30E94940FA82E85EEBF
:10151000D7018C93F80110828681978180960E9472
:101520007008882341F3D80113969C91992309F4FC
:1015300072C0F80180859185A285B3856681778127
:101540009E012F5F3F4F79010097A105B10531F44E
:10155000C9010E94DD10882371F20FC020E2F7015B
:1015600011922A95E9F720E1298321E02B837887DE
:101570006F838D8F9E8FAF8FB8A3BB24B39495EEEE
:10158000992ED80113968C9113978B1508F4B3CF2D
:10159000CB2CD12C14964D915C9115974C195D096B
:1015A00060E070E085E0440F551F661F771F8A9545
:1015B000D1F7C7010E94A30F882309F49CCF60E0F4
:1015C000C7010E946710FC01892B09F494CF838521
:1015D0008F3009F090CF2081822F8F7190E0C81654
:1015E000D90609F088CF8585A81285CF9082D801C9
:1015F0001696ED91FC91179780A1816080A326FF3C
:1016000008C016968D919C91179780960E9470083D
:1016100002C0B394B6CFA0960FB6F894DEBF0FBE4B
:10162000CDBFDF91CF911F910F91FF90EF90DF9091
:10163000CF90BF90AF909F9008952F923F924F927E
:101640005F926F927F928F929F92AF92BF92CF9252
:10165000DF92EF92FF920F931F93CF93DF93CDB75B
:10166000DEB729970FB6F894DEBF0FBECDBF8C0151
:101670007D836C83FA01DB018C91807711F480E02B
:1016800065C2D8018C918111FACFA180B28080818E
:10169000837009F47AC1C5010C966DE070E00E9478
:1016A0001D2899249394960E29837F01EC81FD8156
:1016B000F987E8871F830E83CF010E949F1FC12CEB
:1016C000D12C1A82212C10E000E01B8297012A5FA6
:1016D0003F4F3D832C83A885B98550964D905D90F2
:1016E0006D907C90539795E07694679457944794C7
:1016F0009A95D1F7342C852C61E0CD010E946710BA
:10170000009739F4E885F9858181882309F491C02F
:10171000B6CFDC012C91253E11F0211109C0111129
:1017200001C06201191508F41F5F211105C081C0B5
:10173000191508F42DC102C0253ED9F12E32C9F188
:10174000FC0133853F3009F053C0011108C026FF6A
:10175000C2CF022F0F71F585FA83202E07C02A947D
:10176000221127C02585BA81B21323C0422D50E033
:1017700041505109EDE0E49F9001E59F300D1124A7
:101780002A153B05B0F4FC01812C64E0681518F0C3
:101790008181928108C08AE0881518F08481958142
:1017A00002C086819781A216B30629F4892B09F419
:1017B00092CF00E090CF8F3F910509F0D0F74FEB2B
:1017C000480F4A3108F4805EB9016F5F7F4FD7013F
:1017D00013964D915C911497240F351FD9019C915C
:1017E0002FEB290F2A3108F4905E9813E2CFD2C074
:1017F00033FDDFCF002349F0B1E02B1240CF0E9430
:10180000940FEA81E8133BCF10C04BE050E06C81AD
:101810007D810E94452A892B09F05DCFD7018C91EB
:1018200080FF03C031E03B8356CFB981B6FFA3C030
:1018300026CFE981E4FF23CF8E2F83708150823041
:1018400008F01DCFAFC0B3E0B81510F4A3E08A2EA6
:1018500034E0380D282F2F70E32FF0E02A3008F005
:1018600011C1205DEE0DFF1D2683F4E0969587954E
:10187000FA95E1F73150831668F3F701E80DF11D91
:101880005682888599850E949F1F61E08885998589
:101890000E946710009709F0BCC0E885F985818136
:1018A0008111EDCEA60160E070E0E5E0440F551F28
:1018B000661F771FEA95D1F7888599850E94A30F47
:1018C000882309F4DCCE0FEF090D102F3FE0732EB3
:1018D0004701B6E08B0E911C4DE0642E1111D4C06F
:1018E000E885F98580899189A289B38925E0B69533
:1018F000A795979587952A95D1F7382E892E60E080
:10190000CF010E946710009709F4B9CE20E2DC01F4
:101910001D922A95E9F7F70136962BE0DC0101903C
:101920000D922A95E1F7F70120812871DC011C96C0
:101930002C931C9721E238E251963C932E935097BA
:1019400040E058E01F965C934E931E9753963C934D
:101950002E93529759963C932E93589757965C9393
:101960004E935697A885B9851696ED91FC911797D9
:1019700080A1816080A32981432D582D68857985B8
:101980008E819F810E94F710E1C0992493948CCEA0
:1019900010E0D4CE83943296BDE08B1609F49BCE32
:1019A0009B01F3CE112309F4CEC0191578F0FB8109
:1019B000FF2309F477CFF701858002E010E08EE77E
:1019C000582E3701F6E06F0E711C3BC060E0888531
:1019D00099850E946710892B39F4A885B9851196DD
:1019E0008C91882379F04BCE1F5FDFCFA885B98516
:1019F0001696ED91FC91179782818230C0F6105FA8
:101A00001915A8F6888599850E9401158111EECFD8
:101A100036CEDC012C91222309F444CF1B962C9165
:101A200023FD33CF4BE050E0BC01C3010E94452AA7
:101A3000892B09F02ACF0F5F1F4F0436110509F4D7
:101A40001ECED70111962D913C911297C801820F9D
:101A5000931F1396ED91FC9114972E0F3F1F2E1795
:101A60003F0709F4F0CEAC01B5E0440F551FBA951D
:101A7000E1F7840F951F4191042E000C550B84272C
:101A80009527EDCF295CEECE60E0888599850E9490
:101A900067106C01892B09F4F2CDA885B9851696DB
:101AA000ED91FC91179780A1816080A3101304C071
:101AB000B12FB0645B2E01C0512EF60150827386A7
:101AC0001486C4010E94940FD6011D968C931D9715
:101AD0005B961C921E925A97F70123813481852DC3
:101AE0008F7190E00197689EA001699E500D1124AE
:101AF000F60160E04A155B0540F4D901A40FB51F5B
:101B00008C91082E000C990B0AC081E090E0A4167D
:101B1000B50611F480E090E09195819591096530CA
:101B200018F49283818307C06B3018F49583848303
:101B300002C0978386836F5F4F5F5F4F32966D3031
:101B4000C9F61150CBCEC32CD82C2FCF29960FB667
:101B5000F894DEBF0FBECDBFDF91CF911F910F91E3
:101B6000FF90EF90DF90CF90BF90AF909F908F90BD
:101B70007F906F905F904F903F902F900895AF921D
:101B8000BF92CF92DF92EF92FF920F931F93CF936A
:101B9000DF93DB01FC019F012F5F3F4F808180328B
:101BA00011F4F901F8CF1496FC93EE9313979F016B
:101BB00089010E1B1F0B722F632FE90189919E0172
:101BC000882331F18F3221F4CF01800F911F18C08B
:101BD0008C3511F480E0FFC0982F977F9232D1F3BB
:101BE0008A33C1F3982F9F7B9C33A1F392EC980F1B
:101BF000923080F380528F35D8F2ECCF2F3241F4FF
:101C0000782F692FEC012991CE012032B9F7F8CF56
:101C1000EA0178836983E801CE0FDF1F8E010E1B76
:101C20001F0BEC17FD0751F08A918E32B9F3803209
:101C3000A9F30F3F110509F06CF602C000E010E0B7
:101C400012961C930E931197ED012696CD014196A5
:101C500020E22993C817D907E1F7EF019E012E1B57
:101C60003F0B89918E32D1F38032C1F381E021158F
:101C7000310509F080E0A80141505109EF01C00F82
:101C8000D11F4F3F9FEF590741F470E097E0A92E15
:101C900060E0B12CC8E0EC2E10C09A919E32A9F3FE
:101CA00041505109EECF6F01C20ED31EE60198815B
:101CB000903239F480E02F5F3F4F201731079CF3BB
:101CC00058C09E3221F424173507A1F704C0923280
:101CD000E1F09C37D1F0D6EDFD2EF90ED5E0DF1501
:101CE00010F09D3291F4C6ECFC2EF90EC5E0CF1534
:101CF00060F4D5EAFD2EF90ED2E0DF1530F4CFED19
:101D0000FC2EF90ECDE5CF1520F42417350789F404
:101D100058C02417350709F454C0A61630F1F92E1F
:101D2000DFE9DD2ED90ED9E1DD1548F090527E298C
:101D30000CC0A616D0F08FE5F82E9FE580E0CFEB23
:101D4000FC0ED9E1DF1508F0BE28FF24F394F60E4F
:101D50006D01C60ED11CE6019E83D6E0DF1518F09A
:101D60001596FC9215976F2DA6CF8AE0A8121FC07A
:101D700080E016969C911697903209F42BCF882319
:101D800031F0DB2DD72309F072E07C930EC081E0A7
:101D90008C9315968C911597A80FB11D8EE716960A
:101DA0008C93169781E317968C9381E014C04217A9
:101DB0005307F4F29A018AE0A82E68E090E1E92E38
:101DC00079CF9AE0A916A1F29A019AE0A92E68E0CB
:101DD000C0E1EC2E70CFDF91CF911F910F91FF905A
:101DE000EF90DF90CF90BF90AF9008953F924F92C9
:101DF0005F926F927F928F929F92AF92BF92CF929B
:101E0000DF92EF92FF920F931F93CF93DF9300D057
:101E100000D0CDB7DEB74C01FC01828184608283A3
:101E20004484558466847784A680B780F501C08495
:101E3000D184E284F384C414D504E604F704C0F426
:101E40007301620110E0FFEFCF1ADF0AEF0AFF0A09
:101E5000F501808D918DA28DB38D8C159D05AE05FC
:101E6000BF0540F4111132C0C084D184E284F384F0
:101E700011E0E9CF4C145D046E047F0439F19E013A
:101E80002F5F3F4FB701A601C5010E94640987FD7E
:101E90001DC08823C1F289819A81AB81BC81892BC5
:101EA0008A2B8B2B81F6112329F0F501C086D18670
:101EB000E286F3860FEF1FEF2FEF3FE0B701A60199
:101EC000C5010E94F308382E811102C0312C15C0C3
:101ED000411451046104710431F4F401C486D586BF
:101EE000E686F7860AC097018601B301A201C50103
:101EF0000E94F3088111F1CFE9CF832D0F900F904D
:101F00000F900F90DF91CF911F910F91FF90EF9065
:101F1000DF90CF90BF90AF909F908F907F906F9009
:101F20005F904F903F900895FC019C01255F3F4FCB
:101F300080E0982F90FB979597F98191890F2E1744
:101F40003F07B9F708954F925F926F927F928F92F9
:101F50009F92AF92BF92CF92DF92EF92FF920F9338
:101F60001F93CF93DF93EC014A015B014C845D84A6
:101F70006E847F84A881AA2309F491C04889598975
:101F80006A897B89481559056A057B0509F48DC066
:101F900081149104A104B10429F41C861D861E86B7
:101FA0001F8678C0A3FF0BC0088D198D2A8D3B8D2D
:101FB000081519052A053B0508F471C014C0A5FFD2
:101FC00012C0EE81FF818681978125E0880F991FDD
:101FD0002A95E1F7A0E0B0E088159905AA05BB05B0
:101FE00008F45DC057C0EE81FF81848190E00996BE
:101FF0008A019B010150110921093109082E04C0F1
:1020000036952795179507950A94D2F775016401BF
:10201000B1E0CB1AD108E108F10804C0F694E794C6
:10202000D794C7948A95D2F7C016D106E206F30674
:1020300020F0452B462B472B99F4A6FF05C0848D35
:10204000958DA68DB78D04C08C8D9D8DAE8DBF8D69
:102050008C879D87AE87BF878E01045F1F4F15C099
:10206000C01AD10AE20AF30AF7CF4C855D856E8566
:102070007F8598018E819F810E94640991E0C91A31
:10208000D108E108F108181654F4C114D104E10490
:10209000F10459F7888A998AAA8ABB8A06C04C86B5
:1020A0005D866E867F8680E001C081E0DF91CF9102
:1020B0001F910F91FF90EF90DF90CF90BF90AF9066
:1020C0009F908F907F906F905F904F900895FF92B8
:1020D0000F931F93CF93DF931F92CDB7DEB78C0181
:1020E000FC0180899189A289B3899C01AD0175E0C9
:1020F00056954795379527957A95D1F7F22FFF702A
:10210000FF2E11F0611114C0BE016F5F7F4FC80137
:102110000E94E118813019F080E090E01AC0F801C7
:1021200080899189A289B3894F96A11DB11D04C0F0
:102130008096A11DB11DF801808B918BA28BB38B72
:10214000F801868197818796F0E2FF9E800D911DB0
:1021500011240F90DF91CF911F910F91FF9008955F
:10216000CF93DF93FC01208124FF23C0EC010E9468
:102170009F1F61E0CE010E946710009721F48981C2
:10218000882369F016C0FC012081222341F0253EFE
:1021900081F32E3271F3838583FDEBCF0AC088E093
:1021A00088838A8182608A83CE01DF91CF910C94EB
:1021B0004C0A80E0DF91CF910895FC01808181116C
:1021C00014C080E2DF01982F1D929A95E9F777837A
:1021D0006683DB0115969C91903119F0903229F4B9
:1021E00080E4808381E08283089580E008958F9267
:1021F0009F92AF92BF92FF920F931F93CF93DF9363
:10220000EC01F22E80E2DE011D928A95E9F7FB01D6
:10221000868197819F838E835D834C83848C958C8C
:10222000A68CB78C88869986AA86BB86FA01EF7041
:10223000FF27DC01979635E0EE0FFF1F3A95E1F797
:10224000AD014E0F5F1FDA011B962C9123FD6FC06D
:102250009C012E0F3F1FD901D2962C912771288304
:10226000DA011B963C91387111F4286028830B83A6
:102270002F2D2370213051F028F0223009F057C063
:1022800023E005C0F5FC53C021E001C022E02A8311
:102290002A8121FF04C03881317109F048C03F2DE7
:1022A0003878232B2A83DC0193964D915D916D91B3
:1022B0007C9196974C8B5D8B6E8B7F8BE80FF91F13
:1022C00043AD54AD60E070E0BA0155274427DF010B
:1022D000AF5BBF4F0D911C9120E030E0402B512BA4
:1022E000622B732BF5FE0AC041155105610571057E
:1022F00009F10E94E40981111DC019C04C8F5D8F46
:102300006E8F7F8FED5BFF4F80819181A281B381C2
:10231000888F998FAA8FBB8FF2FE10C0488D598D80
:102320006A8D7B8DCE010E94A30F811107C0188298
:1023300080E005C08A8184608A83EECF81E0DF91EE
:10234000CF911F910F91FF90BF90AF909F908F9072
:1023500008958F929F92AF92BF92CF92DF92EF92A9
:10236000FF920F931F93CF93DF93CDB7DEB7A09764
:102370000FB6F894DEBF0FBECDBFFC0119821A82E2
:102380009081907709F442C07F01CF010E949F1F86
:10239000F70180889188A288B38860E0C7010E9415
:1023A0006710009729F4F7018181882389F12EC0F5
:1023B000FC012081222361F1253E51F32E3241F3AD
:1023C000838583FDE5CF8981811120C0F70180815C
:1023D0008077E1F085E0B694A794979487948A95E6
:1023E000D1F764018114910499F1A401415051097C
:1023F00060E070E025E0440F551F661F771F2A95A7
:10240000D1F7C7010E94A30F81110CC080E073C0F7
:10241000F7018081807621F4C7010E94B0106BC063
:1024200081E069C060E0C7010E946710FC01892B50
:1024300069F383858F3079F480818F71813059F40D
:102440001585082DF5E1CF16D10438F004E105C05B
:10245000C7010E949F1F00E010E060E0C7010E94DA
:102460006710009799F2FC012081253E79F2222322
:1024700069F22E3259F2002321F00E94940F811349
:10248000C5CF20E0A401B701CE0101960E94F7104C
:10249000882309F4BBCF898184FF05C0CE01019652
:1024A0000E94A91107C08B8182608B83CE010196A7
:1024B0000E944C0A882309F4A9CFFFEF8F1A9F0AC4
:1024C000A40160E070E095E0440F551F661F771F80
:1024D0009A95D1F7F70180899189A289B3898417E8
:1024E0009507A607B70709F453CFC7010E94A30FAA
:1024F00081114ECF8BCFA0960FB6F894DEBF0FBEE2
:10250000CDBFDF91CF911F910F91FF90EF90DF90A2
:10251000CF90BF90AF909F908F900895CF93DF930F
:10252000DC01FC0190E048E080E05EE220812032A6
:10253000C1F0983031F4EB01C80FD11D58838F5F83
:1025400040E120813FEB320F3A3130F41C963C9150
:102550001C97342309F0205EEB01C80FD11D28839E
:102560008F5F9F5F31969B3009F7FB01E80FF11DEC
:102570001082DF91CF910895CF93DF93EC01262F46
:102580004C895D896E897F898E819F8180960E94AA
:10259000B308009761F02C813D812F70332745E00F
:1025A000220F331F4A95E1F7820F931F02C080E08C
:1025B00090E0DF91CF910895CF93DF93FC012081CC
:1025C000211102C081E031C0EC01828182FF25C06F
:1025D00061E0CF010E94BC12FC01892B29F48981A2
:1025E0008160898380E021C08081853EC1F388813C
:1025F00083FF08C0888D998DAA8DBB8D848F958FA0
:10260000A68FB78F8C8D9D8DAE8DBF8D938F828F52
:10261000B58BA48B8A818B7F8A838E819F818096E4
:102620000E9470088823D9F2CDCFDF91CF91089511
:102630002F923F924F925F926F927F928F929F92D2
:10264000AF92BF92CF92DF92EF92FF920F931F93C0
:10265000CF93DF93EC015B014A01888183FF0EC0B9
:102660008A8181FF0BC083FF0FC0488D598D6A8D11
:102670007B8DCE010E94A30F811106C089818160EC
:1026800089838FEF9FEF23C1A40160E070E0888908
:102690009989AA89BB8980959095A095B095841752
:1026A0009507A607B70750F364011E018CE0280EBA
:1026B000311C088919892A893B89C114D10409F47C
:1026C000D0C08E819F81B901A80129E076956795D8
:1026D000579547952A95D1F7DC011396FC90F42283
:1026E0001170F11034C00115110589F54C855D8517
:1026F0006E857F85411551056105710569F0910170
:102700000E94640987FDBACF8111C6C0CE010E9424
:10271000F60E8111C1C0B2CF8C8D9D8DAE8DBF8D57
:102720000097A105B10579F4CE010E94F60E882329
:1027300009F4A4CF8C859D85AE85BF858C8F9D8F38
:10274000AE8FBF8F04C08C879D87AE87BF87EE8119
:10275000FF814C855D856E857F85425051096109F9
:102760007109048004C0440F551F661F771F0A9427
:10277000D2F780899189A289B389480F591F6A1FAE
:102780007B1F4F0D511D611D711D0115110521F498
:10279000C114B2E0DB06B0F580E092E0801B910B43
:1027A00076018C159D0508F47C010115110579F45D
:1027B000488859886A887B88888D998DAA8DBB8DB9
:1027C000481659066A067B0610F025E001C021E094
:1027D000CF0180960E94B308009709F44FCFA7015C
:1027E000B501800F911F0E94522A0E0D1F1D011569
:1027F000124031F58E819F8180960E947008811170
:102800001FC03CCF83A194A1A5A1B6A184179507B1
:10281000A607B70741F410A28FEF9FEFDC0183A357
:1028200094A3A5A3B6A3EE81FF8195018081918138
:102830000E943117882309F421CFE12C82E0F82E81
:1028400088899989AA89BB898E0D9F1DA11DB11DFB
:10285000888B998BAA8BBB8BAE0CBF1CCE18DF0864
:1028600028CF888D998DAA8DBB8D80179107A207DF
:10287000B30738F4088F198F2A8F3B8F8A818460C1
:102880008A838A8187FD02C0C40121C0CE010E94D3
:10289000DC128111F9CFF2CEEE81FF814C855D858E
:1028A0006E857F854250510961097109048004C019
:1028B000440F551F661F771F0A94D2F780899189AC
:1028C000A289B389480F591F6A1F7B1F61CFDF910F
:1028D000CF911F910F91FF90EF90DF90CF90BF901D
:1028E000AF909F908F907F906F905F904F903F90B0
:1028F0002F900895CF93DF93EC010E94DC12188291
:10290000DF91CF910895DF92EF92FF920F931F9383
:10291000CF93DF93CDB7DEB7E3970FB6F894DEBF62
:102920000FBECDBF7C018B015BAB4AABD22E1982AF
:102930001A82FC018081882311F080E054C0FB01E1
:1029400080818077D1F3EAA9FBA980818F32D9F405
:10295000EAA9FBA980818F3221F43196FBABEAAB67
:10296000F7CFF80166817781811104C0C7010E9409
:10297000DD1039C0CE0101960E94DD108823E9F2F6
:102980008E010F5F1F4FAE014E5C5F4FBE016F5D4A
:102990007F4F8AA99BA90E94BF0D882371F2EAA9E3
:1029A000FBA980818823B9F020E0AE014F5D5F4F25
:1029B000B801C7010E941D0B882309F4BECF80E235
:1029C000F701DE01119601900D928A95E1F7C7019A
:1029D0000E947A14D5CF2D2DAE014F5D5F4FB80107
:1029E000C7010E941D0BE3960FB6F894DEBF0FBE21
:1029F000CDBFDF91CF911F910F91FF90EF90DF90AE
:102A000008958F929F92AF92BF92EF92FF920F9391
:102A10001F93CF93DF93EC01888185FF02C010E004
:102A200067C088899989AA89BB8981159E4FAF4162
:102A3000B105A8F7CE010E94F60E182F882379F36E
:102A4000EE81FF814C855D856E857F854250510901
:102A500061097109048004C0440F551F661F771F68
:102A60000A94D2F780889188A288B388840E951E34
:102A7000A61EB71E25E0B501A401CF0180960E94D5
:102A8000B3087C01892B59F280E092E0F7019C01A8
:102A9000119221503040E1F701E0EE81FF81828107
:102AA000081780F49701B501A401400F511D611D65
:102AB000711D808191810E943117882309F4AFCF65
:102AC0000F5FEBCF90E0A0E0B0E029E0880F991F06
:102AD000AA1FBB1F2A95D1F7488959896A897B8922
:102AE000840F951FA61FB71F888B998BAA8BBB8B52
:102AF000812FDF91CF911F910F91FF90EF90BF90A9
:102B0000AF909F908F900895AF92BF92CF92DF9237
:102B1000EF92FF920F931F93CF93DF93CDB7DEB762
:102B2000A0970FB6F894DEBF0FBECDBF8C01DB01BE
:102B30009C91907709F4A6C07B0122E5C8010E9410
:102B40001D0B882309F49EC081E0F801828380E197
:102B5000D82ED082C8010E940115882309F492C0A2
:102B6000F80184859585A685B785848F958FA68F76
:102B7000B78FC8010E949F1FC8010E94DC128823E2
:102B800009F480C061E0C8010E94BC12009709F4FA
:102B900079C0DC011B96DC9220E2FC01DE0111967B
:102BA00001900D922A95E1F7FC01A488B588C28CAA
:102BB000D38C8EE28983FE013296CE010C9620E200
:102BC0002193E817F907E1F7D8011696ED91FC91EA
:102BD00017975C964D915D916D917C915F974250F6
:102BE000510961097109048004C0440F551F661F13
:102BF000771F0A94D2F780899189A289B389480FF7
:102C0000591F6A1F7B1F21E0CF0180960E94B308E5
:102C10000097C1F1BE8AAD8ADC8ECB8E20E2FE0128
:102C20003196DC0101900D922A95E1F72EE22A837C
:102C3000F701448D558D668D778D7E8B6D8B5C8F06
:102C40004B8F20E2FE013196DC01909601900D92AF
:102C50002A95E1F7D80116968D919C911797809649
:102C6000A0960FB6F894DEBF0FBECDBFDF91CF9117
:102C70001F910F91FF90EF90DF90CF90BF90AF909A
:102C80000C94700880E0A0960FB6F894DEBF0FBEDB
:102C9000CDBFDF91CF911F910F91FF90EF90DF900B
:102CA000CF90BF90AF900895CF92DF92EF92FF92B6
:102CB0000F931F93CF93DF936C017A018B01C0E0D8
:102CC000D0E0CE15DF0581F0D8016D918D01D601E0
:102CD000ED91FC910190F081E02DC6010995892BC1
:102CE00011F02196EECF7E01C701DF91CF911F91A8
:102CF0000F91FF90EF90DF90CF9008950E94402AAF
:102D00001F920F920FB60F9211242F933F934F9360
:102D10005F938F939F93EF93FF9320916D02309178
:102D20006E0280916B0290916C0228173907D1F0E6
:102D3000C90101964091690250916A02FA01E20FBD
:102D4000F31F208140916F02509170028417950704
:102D500010F080E090E090936E0280936D022093DB
:102D6000C60005C08091C1008F7D8093C100FF9196
:102D7000EF919F918F915F914F913F912F910F9084
:102D80000FBE0F901F9018951F920F920FB60F92C3
:102D900011242F933F934F935F936F937F938F9360
:102DA0009F93EF93FF938091C0008C719091C60028
:102DB00040917302509174029A012F5F3F4F6091CE
:102DC000710270917202FB01E40FF51F9083409134
:102DD0007702509178022417350710F020E030E098
:102DE000409175025091760242175307C1F030931B
:102DF00074022093730290912802892B80932802F9
:102E0000FF91EF919F918F917F916F915F914F9182
:102E10003F912F910F900FBE0F901F9018958160DA
:102E2000EACFCF93DF93EC01E981FA819081818130
:102E30009CBD8DBDE981FA8160E082810E94F21F14
:102E400081E08B83DF91CF9108958EBD0DB407FE95
:102E5000FDCF08958FEF8EBD0DB407FEFDCF8EB56B
:102E600008950F931F93CF93DF93EC0189018D8118
:102E7000833039F089E0440F551F661F771F8A950C
:102E8000D1F79A01AB0168E1CE010E94C507882302
:102E900011F082E330C08EEF0E942517F801808187
:102EA0008EBD818132961E5F0DB407FEFDCF8EBDB3
:102EB000E017F10711F08191F7CF0DB407FEFDCFB8
:102EC0008FEF0E9425178FEF0E9425170E942A1767
:102ED0008C838F71853031F087E58883CE010E9425
:102EE000B0070AC060ED77E0CE010E949507182F69
:102EF000811107C08AE58883CE010E94B00710E0E7
:102F000012C020E030E0A9016DE0CE010E94C507AB
:102F1000811104C00E942A17882311F089E2EBCFA7
:102F2000CE010E94B007812FDF91CF911F910F91A9
:102F30000895CF92DF92EF92FF920F931F93CF935A
:102F4000C82F1092A20281E090E0A0E0B0E0809350
:102F5000A5029093A602A093A702B093A8028DE9C0
:102F600092E09093BF028093BE021092BD028FEF59
:102F70009FEFDC018093C0029093C102A093C20234
:102F8000B093C302CC2331F1C53008F0DEC020E09D
:102F900040E050E0BA018DEB92E00E94B308009748
:102FA00009F4D3C000E1C09F800D911D112440970A
:102FB000FC01E254FE4F20812F7709F0C6C03896FD
:102FC000C080D180E280F380C114D104E104F10417
:102FD00021F4BBC0C12CD12C760120E0B701A601A1
:102FE0008DEB92E00E94B308FC01892B09F4ADC07F
:102FF000838594858115924009F0A7C0808982302D
:1030000009F0A3C0268537852115310509F49DC037
:10301000958590939F028FEF890F8093A002C0E067
:1030200081E0981751F041E04C0F493019F4C093FA
:10303000A1028BC0880FC42FF4CFC093A102468990
:1030400057894115510519F060E070E004C044A1B2
:1030500055A166A177A14093A9025093AA0260935B
:10306000AB027093AC02D701C601820F931FA11D62
:10307000B11D8C019D018093B1029093B202A09387
:10308000B302B093B402818992899093A402809391
:10309000A302440F551F661F771F400F511F621F69
:1030A000731F4093B9025093BA026093BB027093AE
:1030B000BC02B5E0880F991FBA95E1F781509E4F89
:1030C000892F99278695480F591F611D711D4093BF
:1030D000AD025093AE026093AF027093B0022389A9
:1030E00034892115310521F0C901A0E0B0E004C008
:1030F00080A191A1A2A1B3A197018601041B150B88
:10310000260B370BB901A801480F591F6A1F7B1FF7
:1031100004C07695679557954795CA95D2F7DB0118
:10312000CA010196A11DB11D8093B5029093B6020C
:10313000A093B702B093B802453F1FE05107610565
:10314000710528F48CE08093A20280E017C0453F0F
:103150005F4F6105710510F480E10DC084A595A550
:10316000A6A5B7A58093B9029093BA02A093BB021B
:10317000B093BC0280E28093A20281E0CF911F91C4
:103180000F91FF90EF90DF90CF9008950F931F93D2
:10319000CF93DF938C01C0E0D0E0F801EC0FFD1F6E
:1031A0006491662341F08DEE94E00E942202892B07
:1031B00011F02196F2CFCE01DF91CF911F910F91A7
:1031C0000895DF92EF92FF920F931F93CF93DF93B7
:1031D000EC018B0128812223E9F08A8180FF1AC04B
:1031E0001FC0D380D422E114F10409F078C0D110BB
:1031F00076C0892B8A2B8B2B09F456C04C855D85B4
:103200006E857F859E01245F3F4FCF010E94640938
:1032100087FF5AC08981826089838FEF9FEFA7C0A3
:1032200023FF14C0888D998DAA8DBB8D488959893B
:103230006A897B89841B950BA60BB70B823091059D
:10324000A105B105A0F4009791F468C025FF0FC057
:10325000EE81FF818681978145E0880F991F4A950D
:10326000E1F7488959898417950709F45AC0888974
:103270009989AA89BB897C0131E0F322EE81FF8123
:10328000AC01BD0139E076956795579547953A951C
:10329000D1F725FFA6CF848D958DA68DB78D480FCC
:1032A000591F6A1F7B1F46C026FF05C0848D958D60
:1032B000A68DB78D04C08C8D9D8DAE8DBF8D8C87F6
:1032C0009D87AE87BF870BC0811109C08881807739
:1032D00009F4A0CF21E030E081E090E026C0EE814B
:1032E000FF814C855D856E857F854250510961095E
:1032F0007109048004C0440F551F661F771F0A948C
:10330000D2F780899189A289B389480F591F6A1F12
:103310007B1F4D0D511D611D711D0CC020E030E063
:1033200004C020E030E080E090E0A901481B590B88
:10333000CA011DC08E819F8120E080960E94B30843
:10334000009709F467CFFC01EE0DFF1D8081F801A5
:10335000808388899989AA89BB890196A11DB11D9D
:10336000888B998BAA8BBB8B21E030E0DCCFDF917F
:10337000CF911F910F91FF90EF90DF900895FB0187
:10338000242F60913C0570913D05AF010C9483148E
:1033900084EC94E00E947A146DE972E084EC94E08D
:1033A0000C94DD10CF93DF93CDB7DEB7A0970FB6A7
:1033B000F894DEBF0FBECDBF19821A82FC012081B6
:1033C0002F3231F42181211103C00E94C81918C085
:1033D00020E0AC0164EC74E0CE0101960E948314FD
:1033E000882371F09981907751F090E2FE01319637
:1033F000A4ECB4E001900D929A95E1F701C080E051
:10340000A0960FB6F894DEBF0FBECDBFDF91CF916F
:103410000895FC0114821582138212828FE191E0DB
:10342000918380830895C3E061E085E00E94F21FEC
:1034300068EC70E080E090E00E945D2060E085E054
:103440000E94F21F68EC70E080E090E00E945D2036
:10345000C15051F760ED77E080E090E00E945D2080
:10346000E2CFCF93DF93E8EAF1E08491E4E9F1E081
:10347000D491E0E8F1E0C491CC2391F081110E9455
:10348000C91FEC2FF0E0EE0FFF1FED58FE4FA59186
:10349000B491EC91ED2381E090E021F480E002C052
:1034A00080E090E0DF91CF9108958F929F92AF924C
:1034B000BF920F931F93CF93DF93CDB7DEB7A19742
:1034C0000FB6F894DEBF0FBECDBF19A2423008F48C
:1034D0004AE08E010F5D1F4F842E912CA12CB12C40
:1034E000A50194010E943128E62FB901CA010150BB
:1034F0001109EA3014F4E05D01C0E95CD801EC93F5
:10350000232B242B252B61F7B8018DEE94E00E942C
:10351000370AA1960FB6F894DEBF0FBECDBFDF917C
:10352000CF911F910F91BF90AF909F908F90089572
:10353000CF92DF92EF92FF920F931F93CF93DF937F
:10354000EC018881811142C09091C4049077F1F11F
:103550004091D4045091D5046091D6047091D70461
:103560004F71552766277727452B462B472B71F53B
:1035700000E010E0C090D404D090D504E090D604D0
:10358000F090D70460E084EC94E00E94671000970C
:10359000E9F0FC0120812223C9F02E3211F400E071
:1035A000E9CF253EE1F3338533FD07C0002381F0E9
:1035B0000E94940F81130AC00BC03F3081F726FF91
:1035C000D9CF022F0F71FC011585D4CF80E00FC039
:1035D000B701A60185E076956795579547958A9539
:1035E000D1F720E064EC74E0CE010E94F710DF9187
:1035F000CF911F910F91FF90EF90DF90CF900895A2
:10360000BF92CF92DF92EF92FF920F931F93CF93CF
:10361000DF93CDB7DEB7E2970FB6F894DEBF0FBEEB
:10362000CDBF6C01CE0101960E94091A8E010B5D7F
:103630001F4F81E8E82E81E0F82E9FE2B92ECE01DF
:1036400005960E94981A882309F449C08D81882321
:1036500081F0807619F0BDA21EA210C060E0CE01FC
:1036600005960E94BC12009721F0B8010E948E12AC
:1036700005C0CE0105960E947A14E1CF8D81807736
:1036800071F01F930F93FF92EF921F930F930E947D
:10369000622A0F900F900F900F900F900F90B8012B
:1036A000C6010E940F06882321F31F930F9385E81C
:1036B00091E09F938F938DE392E09F938F930E946D
:1036C000622A8F5F80931101CE0105960E947A14C1
:1036D0000F900F900F900F900F900F9006C081E009
:1036E000809311018FEF80933D02E2960FB6F8941C
:1036F000DEBF0FBECDBFDF91CF911F910F91FF9025
:10370000EF90DF90CF90BF9008958F929F92AF92ED
:10371000BF92CF92DF92EF92FF920F931F93CF93BE
:10372000DF93D82FC92F1092E7041092E40410926F
:10373000E9048AEE94E09093E6048093E5040E9405
:1037400097206B017C010091E5041091E6048AE06A
:10375000F801828361E00E94212061E0F80182810A
:103760000E94F21F1FB7F89480913B05811127C07A
:10377000E7E8F1E08491EBE9F1E09491E82FF0E0E3
:10378000EE0FFF1FE759FE4FA591B491EC91E9238D
:1037900021F461E08AE00E94F21F61E08AE00E9469
:1037A00021208CB580618CBD8CB580648CBD61E0BE
:1037B0008DE00E94212061E08BE00E942120809119
:1037C0003B058F5F80933B051FBFE091E504F091BF
:1037D000E60482E5808311828091E704811104C0B0
:1037E00084EE94E00E941117E091E504F091E60464
:1037F00061E082810E94F21F1AE08FEF0E9425177C
:103800001150D9F7E091E504F091E60460E082817F
:103810000E94F21F1AE020E030E0A90160E084EE8F
:1038200094E00E94C507082F813091F0115011F4E7
:1038300080E261C08DEF0E94251798E0A92E92E0EA
:10384000B92E0E942A17F1E0AF1AB108D1F7E3CFE1
:103850002AEA31E040E050E068E084EE94E00E9423
:10386000C507853019F40093E9040FC014E00E94E5
:103870002A178093E8041150D1F78A3A21F482E0A4
:103880008093E90402C085E236C08091E904823069
:1038900021F0812C912C540105C0812C912CA12C5C
:1038A00080E4B82E20E030E0A90167E384EE94E0E4
:1038B0000E94C507A501940169E284EE94E00E948C
:1038C000C507882349F00E9497206C197D09613D46
:1038D000774040F383E40FC08091E904823001F522
:1038E00020E030E0A9016AE384EE94E00E94C5077D
:1038F000882341F087E38093E40484EE94E00E94FF
:10390000B00741C00E942A17807C803C19F483E0F4
:103910008093E9040E942A170E942A170E942A17FE
:1039200084EE94E00E94B007E091E504F091E60493
:10393000D083C18384EE94E090939E0280939D0295
:1039400084EC94E00E947A1481E00E949917882305
:1039500049F06DE972E084EC94E00E94DD10882368
:1039600091F006C080E00E9499178111F2CF0BC040
:103970009091C404907739F024EC34E030933D0505
:1039800020933C0501C080E0DF91CF911F910F9102
:10399000FF90EF90DF90CF90BF90AF909F908F906F
:1039A0000895089580E090E008950F931F93CF93BA
:1039B000DF93CDB7DEB7C355D1090FB6F894DEBF9C
:1039C0000FBECDBF009709F47DC010928F011092F9
:1039D0008E0119A21AA264969FAF8EAF64971982C6
:1039E0001A822091C404207709F46CC0FC01808104
:1039F0008F3209F064C06496EEADFFAD64978081AC
:103A00008F3231F431966496FFAFEEAF6497F3CF07
:103A10006091CA047091CB04CE0101960E94DD1022
:103A2000882309F44FC08E010F5F1F4FAE014E5A1D
:103A30005F4FBE016F5B7F4F64968EAD9FAD649705
:103A40000E94BF0D8823F1F16496EEADFFAD64973F
:103A50008081882321F120E0AE014F5B5F4FB801E8
:103A6000CE0181960E941D0B882371F080E2FE0139
:103A7000B196DE01119601900D928A95E1F7CE0183
:103A800081960E947A14CFCFAE014F5B5F4FB80191
:103A9000CE0181960E9484158111E8CF13C0AE013A
:103AA0004F5B5F4FB801CE0181960E948415882339
:103AB00049F08091010182608093010103C004EC10
:103AC00014E0B4CFCD5ADF4F0FB6F894DEBF0FBE6F
:103AD000CDBFDF91CF911F910F9108950F931F9349
:103AE000CF93DF93CDB7DEB7A4970FB6F894DEBFC0
:103AF0000FBECDBF8C01CE0101960E94091A01159F
:103B00001105D9F010928F0110928E0141E5B80194
:103B1000CE0105960E94BF19882351F080910101C2
:103B2000826080930101CE0105960E947A1405C03F
:103B3000809101018D7F80930101A4960FB6F894C6
:103B4000DEBF0FBECDBFDF91CF911F910F910895C2
:103B500080E591E00E94851B811106C082EF90E014
:103B60000E94C6180E94F9040E94C81981110AC057
:103B700082EF90E00E94C6188CED90E00E94C6187B
:103B80000E94131A809101018260809301010895BF
:103B9000CF93DF9381E090E090938F0180938E012B
:103BA000C0E0D1E08B810E948F0789818260898388
:103BB000DF91CF910895CF93DF9381E090E09093D0
:103BC0008F0180938E01C0E0D1E08A810E948F072F
:103BD000898182608983DF91CF910895CF93DF93AC
:103BE00081E090E090938F0180938E01C0E0D1E05E
:103BF00089810E948F07898182608983DF91CF91BB
:103C00000895CF93DF9381E090E090938F018093AC
:103C10008E01C0E0D1E088810E948F078981826097
:103C20008983DF91CF91089580918E0190918F01CA
:103C30008130910531F1A0F08230910581F1039737
:103C4000C9F54091110150E06DE372E08DE592E01D
:103C50000E94A10180918C0190918D010C94001B18
:103C6000609101018DE592E00E94AC01809101011B
:103C70008D7F80930101809101018B7F80930101F1
:103C800008954091110150E06DE372E08DE592E0FE
:103C90000E94A10110928F0110928E01089540910F
:103CA000110150E06DE372E08DE592E00E94A10108
:103CB0000C940C0760E88DE592E00C94AC010F9336
:103CC0001F93CF93DF93109241061092400690917C
:103CD000900180919101981729F18DE592E00E9461
:103CE000850180933F0690919001809191019817F2
:103CF00071F3C0914006D0914106CE010196909398
:103D00004106809340068DE592E00E948501C25CE9
:103D1000DA4F8883E0914006F0914106E25CFA4F69
:103D20001082E1CFCBE4D1E00EE711E00C171D07C4
:103D3000D1F0988180913F06981313C080910101C2
:103D40008D7F809301018091010184608093010146
:103D5000E981FA818EE395E009951092410610926F
:103D600040062396E3CFDF91CF911F910F910895E5
:103D700004960C941813CF93DF931F92CDB7DEB740
:103D8000698341E050E0BE016F5F7F4F04960E945F
:103D900018130F90DF91CF91089504960C94DC12C4
:103DA000CF938091BC008A7B8093BC0060E082E16D
:103DB0000E94F21F60E083E10E94F21F0E94311A0C
:103DC000892BD1F4109291011092900110929301DD
:103DD000109292010E94DB048FE391E09093950191
:103DE000809394018BE491E09093970180939601E6
:103DF00082E58093BA001EC08DE090E00E9401052C
:103E0000C82F10929101109290011092930110927C
:103E100092010E94DB048FE391E0909395018093DF
:103E200094018BE491E09093970180939601CC0FDD
:103E3000C093BA00CF910895CF92DF92EF92FF9294
:103E40000F931F93CF93DF938C01FC018181853603
:103E500001F56091040170E080E090E04AE00E948A
:103E6000551A6EE771E08DEE94E00E94370A81E00A
:103E700090E090938F0180938E0180910401DF91F7
:103E8000CF911F910F91FF90EF90DF90CF900C9406
:103E90008F070115110509F44CC0F80101900020AD
:103EA000E9F7BF01601B710B80E090E00E947A2966
:103EB000EC010097F1F11882B8010E945B2ACE0153
:103EC0000E94AE246B017C0168E871E08DEE94E005
:103ED0000E94370A40E1C701B60177278827992752
:103EE0000E94551A6EE771E08DEE94E00E94370A49
:103EF00088EF8C0D803790F4C0920401609104012A
:103F00008DE090E00E94FF0481E0809327020E94F0
:103F1000D01E80910101826080930101CE01DF916A
:103F2000CF911F910F91FF90EF90DF90CF900C9465
:103F3000F128C0E0D0E0C12CD12C7601C5CF40E003
:103F400050E0BA010C94A30F3FB7F8948091470654
:103F500090914806A0914906B0914A0626B5A89BC3
:103F600005C02F3F19F00196A11DB11D3FBFBA2F0B
:103F7000A92F982F8827820F911DA11DB11DBC016B
:103F8000CD0142E0660F771F881F991F4A95D1F730
:103F90000895833081F028F4813099F08230A1F0C7
:103FA00008958730A9F08830B9F08430D1F4809139
:103FB00080008F7D03C0809180008F778093800088
:103FC000089584B58F7702C084B58F7D84BD089530
:103FD0008091B0008F7703C08091B0008F7D809377
:103FE000B00008951F93CF93DF93282F30E0F9019D
:103FF000EB55FE4F8491F901EF56FE4FD491F90134
:10400000E358FE4FC491CC23C1F0162F81110E94BA
:10401000C91FEC2FF0E0EE0FFF1FE754FE4FA591F4
:10402000B4919FB7F894111104C08C91D095D82306
:1040300002C0EC91DE2BDC939FBFDF91CF911F91EB
:104040000895CF93DF9390E0FC01EF56FE4F24914B
:10405000FC01E358FE4F8491882361F190E0880FC2
:10406000991FFC01E759FE4FC591D491FC01E7541B
:10407000FE4FA591B491611109C09FB7F894888152
:10408000209582238883EC912E230BC0623061F44B
:104090009FB7F8948881322F309583238883EC91E1
:1040A0002E2B2C939FBF06C08FB7F894E8812E2B40
:1040B00028838FBFDF91CF9108958F929F92AF9207
:1040C000BF92CF92DF92EF92FF926B017C010E9430
:1040D000A41F4B015C01C114D104E104F104F1F00F
:1040E0000E94A41FDC01CB0188199909AA09BB0908
:1040F000883E9340A105B10570F321E0C21AD108B2
:10410000E108F10888EE880E83E0981EA11CB11C1E
:10411000C114D104E104F10419F7DDCFFF90EF9051
:10412000DF90CF90BF90AF909F908F9008952FB762
:10413000F8946091430670914406809145069091F1
:1041400046062FBF08951F920F920FB60F921124AB
:104150002F933F938F939F93AF93BF938091430689
:1041600090914406A0914506B091460630914206D2
:1041700023E0230F2D3720F40196A11DB11D05C0AA
:1041800026E8230F0296A11DB11D209342068093BD
:10419000430690934406A0934506B093460680914B
:1041A000470690914806A0914906B0914A060196AB
:1041B000A11DB11D8093470690934806A093490620
:1041C000B0934A06BF91AF919F918F913F912F91EC
:1041D0000F900FBE0F901F901895CF93DF93CDB720
:1041E000DEB7C357D1090FB6F894DEBF0FBECDBFFF
:1041F000789484B5826084BD84B5816084BD85B5C2
:10420000826085BD85B5816085BD80916E008160CD
:1042100080936E0010928100809181008260809373
:104220008100809181008160809381008091800075
:104230008160809380008091B10084608093B100A0
:104240008091B00081608093B00080917A0084609A
:1042500080937A0080917A00826080937A008091C6
:104260007A00816080937A0080917A0080688093E0
:104270007A001092C10061E085E00E94212062E096
:1042800083E00E94212083B7817F83BF83B7816051
:1042900083BF80917A008F7780937A0080E880BF17
:1042A0008FE380937E0083E080937F0080916400A1
:1042B00088608093640080916400806480936400CF
:1042C0008091640081608093640082E090E00E94AD
:1042D00001058093380280913802863040F01092B8
:1042E00038026091380282E090E00E94FF0485E08D
:1042F00090E00E9401058093370280913702882365
:1043000009F4BAC2809137028F3F09F4B5C286E042
:1043100090E00E94010580933602809136028F3F23
:1043200049F483E0809336026091360286E090E0A3
:104330000E94FF048DE090E00E940105809304013B
:10434000809104018F3F49F48AE2809304016091D7
:1043500004018DE090E00E94FF048FE59EE19093C0
:1043600024028093230284E19EE1909326028093AD
:1043700025020E94D01E1092C10086E08093C200E8
:1043800082E08093C0001092C5008FEC8093C4003F
:1043900088E98093C10087E691E00E94C61880E515
:1043A00091E00E94851B81110BC0809101018E7FDD
:1043B0008093010182EF90E00E94C6180E94F904E8
:1043C000809101018160809301010E94C8198111CF
:1043D0000BC0809101018E7F8093010180910101CA
:1043E0008F7E8093010111C08091010180618093D3
:1043F000010185E691E00E94C618CE0185960E94D3
:10440000091A0E94C81981110AC082EF90E00E9427
:10441000C6188CED90E00E94C6180E94131A6DE435
:1044200071E0CE018E599F4F0E94D52440E0BE011D
:104430006E597F4FCE0189960E94BF19811107C026
:10444000CE0189960E947A140E944D058EC18E017C
:10445000075B1F4FA12C7801BE016F5F7F4FCE011C
:1044600089960E94E118019711F4898102C08FEFAB
:104470009FEF87FD09C08A3039F0D8018D938D01F7
:10448000A394BDE0AB12E8CFCE0189960E947A14C6
:10449000B12CD12CE3E09E2EFAE18F2EC12CAAE2A2
:1044A0004A2E512C612C712CDA1408F06CC08E014C
:1044B00004591F4FF80180E0D701AD0DB11D9C914B
:1044C0009C3241F0DA1431F0863021F09193D3948C
:1044D0008F5FF2CFF801E80FF11D1082C8010E9432
:1044E0009024B11031C020E030E0A901D801ED9155
:1044F0008D0180ED8E0F8A30A8F4AAE0B0E00E9412
:10450000CC274E2FEE0F550B9A012053310929016C
:10451000330F66087708A3019201260F371F481F43
:10452000591FE4CF29013A01DA01C9010897A1090D
:10453000B10980379105A105B10510F17AE2472E46
:10454000512C612C712C1CC0B1E0BB1205C0181697
:10455000A4F06AE1862E14C0E2E0BE1205C08F3FCF
:1045600071F453E0952E0CC0F3E0BF120CC091E043
:10457000813009F090E0C92E03C0882E01C0982E2A
:10458000B394D39491CF8091040190E0A0E0B0E087
:1045900084159505A605B70549F0642D8DE090E0DA
:1045A0000E94FF044092040181E001C080E09091EC
:1045B00038029C1549F0C09238026091380282E0BE
:1045C00090E00E94FF0481E090913702981549F035
:1045D000809237026091370285E090E00E94FF04EC
:1045E00081E090913602991549F0909236026091DF
:1045F000360286E090E00E94FF0401C081110E9413
:104600004D0580913802811184C0CE0101960E942F
:10461000091A84E090E00E940105082F83E090E0F1
:104620000E94010510E0102F0027082B0F3F2FEFED
:10463000120769F460E083E090E00E94FF0460E00C
:1046400084E090E00E94FF0400E010E007C00E3F0D
:104650008FEF180719F487E191E03CC02BE0E22EC0
:1046600021E0F22E39E2C32E32E0D32E1F930F93B6
:10467000FF92EF92DF92CF920E94032541E569E21B
:1046800072E0CE0105960E94BF190F900F900F9017
:104690000F900F900F900F5F1F4F811120C040E0CF
:1046A00069E272E0CE0105960E94BF19882361F08D
:1046B0008D8D9E8DAF8DB8A1892B8A2B8B2B79F098
:1046C000CE0105960E947A140E3F9FEF190771F6EE
:1046D00089EF90E00E94C61880E090E03FC0CE01D4
:1046E00005960E947A14602F83E090E00E94FF04F8
:1046F00084E090E00E940105612F772790E0861703
:10470000970721F084E090E00E94FF0489E292E0A4
:1047100025C080913802813019F5CE0101960E94A2
:10472000091A60E471E0CE018A5A9F4F0E94D52495
:1047300041E1BE016A5A7F4FCE0105960E94BF1922
:10474000811105C089E291E00E94C61809C0CE011E
:1047500005960E947A14CE018A5A9F4F0E94030543
:10476000809101018860809301010E94D01E8CE538
:1047700091E00E94C6180E94311A892B31F440E161
:1047800069E270E080E090E006C06091040170E0B2
:1047900080E090E040E10E94551A8AE591E00E9495
:1047A000C61888E591E00E94C61861E085E00E9485
:1047B000F21F83E891E00E94D2198091010182608A
:1047C000809301018091010184608093010100E0E8
:1047D00010E00E949720C0903902D0903A02E090F9
:1047E0003B02F0903C02DC01CB018C199D09AE0923
:1047F000BF09853F9140A105B10578F18091640022
:10480000806280936400809164008460809364007F
:104810008091640082608093640083B7816083BF6D
:10482000889583B78E7F83BF809164008B7F809350
:104830006400809164008F7D8093640080916400A7
:104840008D7F809364000E9497206093390270935B
:104850003A0280933B0290933C0280912702882386
:1048600021F00E944D05109227020115110509F44F
:10487000B0CF0E940000ADCF8AE1809337026091F3
:10488000370285E090E00E94FF0441CDEDE5F2E0C3
:104890001382128288EE93E0A0E0B0E084839583D7
:1048A000A683B7832BE231E031832083EDEEF4E081
:1048B0001382128284839583A683B7838DE391E06C
:1048C00091838083E1E7F2E089EF94E09183808334
:1048D00081E290E09783868315821482138212828C
:1048E000E9E6F2E02AE135E031832083978386838D
:1048F00015821482138212821092A2021092C404B2
:104900001092C50484E68093E4041092E90480E5E3
:104910008093EA041092EB0489E792E00C94091A60
:10492000FC0188279927E89421912032E9F3293066
:1049300010F02E30C8F32B3241F02D3239F4689448
:1049400004C00E94FB24820F911D219120532A3024
:10495000C0F31EF4909581959F4F08951F93FC011D
:1049600099278827BC01E89411911032E9F3193096
:1049700010F01E30C8F31B3251F01D3249F4689418
:1049800006C00E94E624610F711D811D911D1191C9
:1049900010531A30B0F33EF4909580957095619560
:1049A0007F4F8F4F9F4F1F910895FB01DC010590B2
:1049B0000D920020E1F70895DC016C9161566A3197
:1049C00008F0605E6F5B6D93C1F70895592F482F13
:1049D000372F262F660F771F881F991F660F771FA7
:1049E000881F991F620F731F841F951F660F771F03
:1049F000881F991F08957AE0979F902D879F802D9B
:104A0000910D11240895AEE0B0E0E9E0F5E20C94D8
:104A1000E5270D891E898EE08C831A8309838FEF29
:104A20009FE79E838D83AE01475E5F4F6F89788DD0
:104A3000CE0101960E942525EF81F885E00FF11F38
:104A400010822E96E4E00C940128ABE0B0E0EBE29B
:104A5000F5E20C94D7276C017B018A01FC011782D7
:104A60001682838181FFCCC1CE0101963C01F60103
:104A70009381F70193FD859193FF81917F018823B5
:104A800009F4BAC1853239F493FD859193FF819180
:104A90007F01853229F4B60190E00E941C27E7CF00
:104AA000912C212C312CFFE1F315D8F08B3279F0C9
:104AB00038F4803279F08332A1F4232D20611DC0B7
:104AC0008D3261F0803369F4232D216016C0832D6F
:104AD0008260382EE32DE4603E2E2AC0F32DF8606C
:104AE0001DC037FC2DC020ED280F2A3040F08E323B
:104AF000B9F436FC81C1232D2064322E19C036FE54
:104B000006C08AE0989E200D1124922E11C0EAE082
:104B10002E9E200D1124222EF32DF0623F2E08C070
:104B20008C3621F4832D8068382E02C0883641F4FB
:104B3000F70193FD859193FF81917F018111B3CF9F
:104B4000982F9F7D9554933028F40C5F1F4F9FE35F
:104B500099830DC0833631F0833771F0833509F0C6
:104B600059C021C0F801808189830E5F1F4F8824BE
:104B70008394912C530113C02801F2E04F0E511C75
:104B8000F801A080B18036FE03C0692D70E002C03C
:104B90006FEF7FEFC5010E9411274C018201F32DB9
:104BA000FF773F2E16C0280122E0420E511CF8016B
:104BB000A080B18036FE03C0692D70E002C06FEFA7
:104BC0007FEFC5010E9406274C01F32DF0683F2EB0
:104BD000820133FC1BC0822D90E088169906B0F448
:104BE000B60180E290E00E941C272A94F4CFF501E0
:104BF00037FC859137FE81915F01B60190E00E94FC
:104C00001C2721102A9421E0821A91088114910412
:104C100071F7E8C0843611F0893641F5F80137FEA6
:104C200007C060817181828193810C5F1F4F08C032
:104C300060817181072E000C880B990B0E5F1F4F4E
:104C4000F32DFF763F2E97FF09C0909580957095C4
:104C500061957F4F8F4F9F4FF0683F2E2AE030E0E5
:104C6000A3010E945827882E861845C0853731F445
:104C7000232D2F7EB22E2AE030E025C0932D997F80
:104C8000B92E8F36C1F018F4883579F0B5C0803769
:104C900019F0883721F0B0C0E92FE061BE2EB4FED4
:104CA0000DC0FB2DF460BF2E09C034FE0AC0292FB1
:104CB0002660B22E06C028E030E005C020E130E0DA
:104CC00002C020E132E0F801B7FE07C060817181C7
:104CD000828193810C5F1F4F06C06081718180E0EB
:104CE00090E00E5F1F4FA3010E945827882E861860
:104CF000FB2DFF773F2E36FE0DC0232D2E7FA22EDB
:104D0000891458F434FE0BC032FC09C0832D8E7E0A
:104D1000A82E05C0B82CA32C03C0B82C01C0B92CF8
:104D2000A4FE0FC0FE01E80DF11D8081803321F447
:104D30009A2D997EA92E09C0A2FE06C0B394B39401
:104D400004C08A2D867809F0B394A3FC11C0A0FE9C
:104D500006C0B21488F4280C922C9B180EC0B21412
:104D600060F4B60180E290E00E941C27B394F7CF74
:104D7000B21418F42B1802C0982C212CA4FE10C0D9
:104D8000B60180E390E00E941C27A2FE17C0A1FCA0
:104D900003C088E790E002C088E590E0B6010CC04F
:104DA0008A2D867859F0A1FE02C08BE201C080E214
:104DB000A7FC8DE2B60190E00E941C27891438F40C
:104DC000B60180E390E00E941C279A94F7CF8A9462
:104DD000F301E80DF11D8081B60190E00E941C27CF
:104DE0008110F5CF222009F442CEB60180E290E096
:104DF0000E941C272A94F6CFF6018681978102C073
:104E00008FEF9FEF2B96E2E10C94F327FC010590C6
:104E1000615070400110D8F7809590958E0F9F1FBC
:104E20000895FC016150704001900110D8F7809501
:104E300090958E0F9F1F08950F931F93CF93DF932D
:104E4000FB01238121FD03C08FEF9FEF2CC022FFC8
:104E500016C046815781248135814217530744F497
:104E6000A081B1819D012F5F3F4F318320838C93BF
:104E7000268137812F5F3F4F3783268314C08B01F4
:104E8000EC01FB010084F185E02D0995892BE1F609
:104E9000D80116968D919C911797019617969C9321
:104EA0008E931697CE01DF91CF911F910F910895A8
:104EB000FA01AA27283051F1203181F1E8946F934B
:104EC0006E7F6E5F7F4F8F4F9F4FAF4FB1E03ED0F1
:104ED000B4E03CD0670F781F891F9A1FA11D680F8F
:104EE000791F8A1F911DA11D6A0F711D811D911DC2
:104EF000A11D20D009F468943F912AE0269F112437
:104F00003019305D3193DEF6CF010895462F47709A
:104F1000405D4193B3E00FD0C9F7F6CF462F4F70F5
:104F2000405D4A3318F0495D31FD4052419302D053
:104F3000A9F7EACFB4E0A6959795879577956795F9
:104F4000BA95C9F700976105710508959B01AC01F9
:104F50000A2E06945795479537952795BA95C9F720
:104F6000620F731F841F951FA01D0895F999FECF2E
:104F700092BD81BDF89A992780B50895262FF99999
:104F8000FECF1FBA92BD81BD20BD0FB6F894FA9A2C
:104F9000F99A0FBE019608950E940E28A59F900DC4
:104FA000B49F900DA49F800D911D112408952F9200
:104FB0003F924F925F926F927F928F929F92AF92A9
:104FC000BF92CF92DF92EF92FF920F931F93CF93F6
:104FD000DF93CDB7DEB7CA1BDB0B0FB6F894DEBF8D
:104FE0000FBECDBF09942A88398848885F846E84B3
:104FF0007D848C849B84AA84B984C884DF80EE80FD
:10500000FD800C811B81AA81B981CE0FD11D0FB605
:10501000F894DEBF0FBECDBFED010895A29FB00191
:10502000B39FC001A39F700D811D1124911DB29FDC
:10503000700D811D1124911D0895AA1BBB1B51E108
:1050400007C0AA1FBB1FA617B70710F0A61BB70BF8
:10505000881F991F5A95A9F780959095BC01CD019D
:105060000895A1E21A2EAA1BBB1BFD010DC0AA1FA9
:10507000BB1FEE1FFF1FA217B307E407F50720F0C1
:10508000A21BB30BE40BF50B661F771F881F991F3C
:105090001A9469F760957095809590959B01AC0185
:1050A000BD01CF010895EE0FFF1F0590F491E02D93
:1050B00009940F931F93CF93DF938230910510F4DF
:1050C00082E090E0E0914D06F0914E0620E030E065
:1050D000A0E0B0E0309719F1408151810281138145
:1050E00048175907C8F08417950769F4109731F0ED
:1050F00012960C93129713961C9327C000934D069B
:1051000010934E0622C02115310519F0421753079E
:1051100018F49A01BD01EF01DF01F801DBCF211581
:105120003105F9F0281B390B2430310580F48A81D0
:105130009B816115710521F0FB019383828304C07B
:1051400090934E0680934D06FE01329644C0FE01B8
:10515000E20FF31F81939193225031093983288301
:105160003AC020914B0630914C06232B41F42091FC
:1051700014013091150130934C0620934B06209179
:105180001201309113012115310541F42DB73EB7BD
:105190004091160150911701241B350BE0914B06ED
:1051A000F0914C06E217F307A0F42E1B3F0B2817D3
:1051B000390778F0AC014E5F5F4F2417350748F090
:1051C0004E0F5F1F50934C0640934B068193919373
:1051D00002C0E0E0F0E0CF01DF91CF911F910F918D
:1051E0000895CF93DF93009709F481C0FC013297B3
:1051F00013821282A0914D06B0914E06109781F451
:1052000020813181820F931F20914B0630914C06F3
:105210002817390751F5F0934C06E0934B0667C009
:10522000ED0120E030E0CE17DF0740F44A815B81DA
:105230009E0141155105F1F0EA01F5CFD383C283F8
:1052400040815181840F951FC817D90759F488816F
:105250009981840F951F0296918380838A819B8117
:10526000938382832115310529F4F0934E06E09350
:105270004D063DC0E901FB83EA8349915991C40F72
:10528000D51FEC17FD0761F480819181840F951F74
:105290000296E90199838883828193819B838A8323
:1052A000E0E0F0E012968D919C911397009719F031
:1052B000FD01DC01F7CF8D919C9111979D012E5F2F
:1052C0003F4F820F931F20914B0630914C062817B9
:1052D000390769F4309729F410924E0610924D0662
:1052E00002C013821282B0934C06A0934B06DF914A
:1052F000CF910895A0E0B0E0E0E8F9E20C94DB275C
:10530000EC01009721F4CB010E945928B4C0FC01A4
:10531000E60FF71F9C0122503109E217F30708F44A
:10532000A8C0D9010D911C91119706171707B0F06D
:105330000530110508F49BC0C8010497861797072C
:1053400008F495C002501109061B170B0193119325
:105350006D937C93CF010E94F12889C05B01A01A54
:10536000B10A4C01800E911EA0914D06B0914E06DF
:10537000612C712CE12CF12C109709F446C08D9111
:105380009C911197A815B905B1F56C0142E0C40EC6
:10539000D11CCA14DB0478F14C018A189B08640103
:1053A00042E0C40ED11C1296BC9012971396AC9199
:1053B000B5E0CB16D10440F0B282A3839182808203
:1053C000D9016D937C9309C00E5F1F4F800F911F11
:1053D000F90191838083EB2DFA2FE114F10431F070
:1053E000D7011396FC93EE93129741C0F0934E06AB
:1053F000E0934D063CC06816790608F43C017D0137
:1054000012960D90BC91A02DB7CF80914B06909134
:105410004C0688169906E1F466167706C8F4809162
:10542000120190911301009741F48DB79EB74091FE
:10543000160150911701841B950BE817F907C8F462
:10544000F0934C06E0934B06F901718360830FC023
:10545000CB010E9459287C01009759F0A801BE0198
:105460000E94522ACE010E94F128C70104C0CE0139
:1054700002C080E090E0CDB7DEB7EEE00C94F727F5
:1054800081E090E0F8940C94842AFB01DC0104C0D4
:105490008D910190801921F441505040C8F7881B2C
:1054A000990B0895FB01DC0102C001900D9241505F
:1054B0005040D8F70895FB01DC0101900D920020C7
:1054C000E1F70895AEE0B0E0E8E6FAE20C94E527F3
:1054D0000D891E8986E08C831A8309838FEF9FE7ED
:1054E0009E838D83AE01475E5F4F6F89788DCE01BD
:1054F00001960E942525EF81F885E00FF11F1082AB
:0C5500002E96E4E00C940128F894FFCFF4
:10550C00780002002A0000000000000000000000EB
:10551C00000100004F0680002A000000000000BBC4
:10552C001EB81ED21CCD1E00000000AC01A101D281
:10553C001C75019901850176010000000022025FB3
:10554C0002D21C16020002D801BD0100011E01EEA0
:10555C001D02DB1D03C81D1E1C1F05A81D066E1D8C
:10556C0007D51C0880030943070A56020B2F050CAC
:10557C0000030DBF020E5C030F4D061011030D0A44
:0C558C000025732F00257300307800000C
:00000001FF
